:100000000C9456000C9460000C9460000C946000FA
:100010000C9460000C9460000C9460000C946000E0
:100020000C9460000C9460000C9460000C946000D0
:100030000C9460000C9460000C9460000C946000C0
:100040000C946D000C9460000C9460000C946000A3
:100050000C9460000C9460000C9460000C946000A0
:100060000C9460000C9460000C9460000C94600090
:100070000C9460000C9460000C9460000C94600080
:100080000C9460000C9460000C9460000C94600070
:100090000C9460000C9460000C9460000C94600060
:1000A0000C9460000C9460000C94600011241FBE3E
:1000B000CFEFDAE0DEBFCDBF0E94A0000C94C100FC
:1000C0000C94000095B121E030E0082E01C0220F11
:1000D0000A94EAF7922795B908951F920F920FB6E6
:1000E0000F9211242F933F934F935F936F937F93BE
:1000F0008F939F93AF93BF93EF93FF93809186006D
:1001000090918700439730F085E090E00E94620074
:100110005E9A01C05E981092850010928400FF9153
:10012000EF91BF91AF919F918F917F916F915F916F
:100130004F913F912F910F900FBE0F901F901895E8
:100140008091D8008F778093D8008AB1817F8AB957
:100150008AB181648AB984B1806E84B984B58264BD
:1001600084BD85B5836085BD17BC80918100836C9B
:100170008093810080916F00806280936F007894FB
:06018000FFCFF894FFCF51
:00000001FF
