S01700006275696C642F626172656D6574616C2E7372656321
S11300000C9456000C9473000C9473000C947300BD
S11300100C9473000C9473000C9473000C94730090
S11300200C9473000C9473000C9473000C94730080
S11300300C9473000C9473000C9473000C94730070
S11300400C9480000C9473000C9473000C94730053
S11300500C9473000C9473000C9473000C94730050
S11300600C9473000C9473000C9473000C94730040
S11300700C9473000C9473000C9473000C94730030
S11300800C9473000C9473000C9473000C94730020
S11300900C9473000C9473000C9473000C94730010
S11300A00C9473000C9473000C94730011241FBE01
S11300B0CFEFDAE0DEBFCDBF11E0A0E0B1E0EEE1CA
S11300C0F2E002C005900D92A631B107D9F711E014
S11300D0A6E1B1E001C01D92AC31B107E1F70E9485
S11300E0EC000C940D010C94000095B121E030E07B
S11300F0082E01C0220F0A94EAF7922795B90895B1
S11301001F920F920FB60F9211242F933F934F9388
S11301105F936F937F938F939F93AF93BF93EF936B
S1130120FF938091860090918700209117012F5FA3
S113013020931701439778F080911701853058F484
S113014010921601E0911701F0E0EF5FFE4F8081FD
S11301508130F9F420C0809116018F5F80931601DD
S113016080911601833150F01092170181E0809341
S1130170000186E090E00E9475000DC08091170197
S1130180853048F4E0911701F0E0EF5FFE4F808185
S113019081111092000180911701843041F4809103
S11301A00001882321F085E090E00E947500109200
S11301B0850010928400FF91EF91BF91AF919F91C0
S11301C08F917F916F915F914F913F912F910F90FC
S11301D00FBE0F901F9018958091D8008F77809351
S11301E0D8008AB1817F8AB98AB181648AB984B11D
S11301F0806E84B984B5826484BD85B5836085BD11
S113020017BC80918100836C8093810080916F0082
S1110210806280936F007894FFCFF894FFCF44
S113021E01010100010001000100010001000100C3
S109022E000000000000C6
S9030000FC
