S01700006275696C642F626172656D6574616C2E7372656321
S11300000C9456000C9460000C9460000C946000F6
S11300100C9460000C9460000C9460000C946000DC
S11300200C9460000C9460000C9460000C946000CC
S11300300C9460000C9460000C9460000C946000BC
S11300400C9460000C9460000C9460000C946000AC
S11300500C9460000C9460000C9460000C9460009C
S11300600C9460000C9460000C9460000C9460008C
S11300700C9460000C9460000C9460000C9460007C
S11300800C9460000C9460000C9460000C9460006C
S11300900C9460000C9460000C9460000C9460005C
S11300A00C9460000C9460000C94600011241FBE3A
S11300B0CFEFDAE0DEBFCDBF0E946D000C949A0052
S11300C00C94000095B121E030E0082E01C0220F0D
S11300D00A94EAF7922795B908951AB8509A84B108
S11300E0806E84B984B5826484BD85B5836085BD22
S11300F017BC15B880916900806C8093690085E015
S113010090E00E9462002FEF89E698E12150804040
S11301109040E1F700C0000086E090E00E94620099
S11301202FEF89E698E1215080409040E1F700C02C
S10B01300000E5CFF894FFCFB5
S9030000FC
